:020000040800F2
:10000000880B002001010008510B0008490B000873
:100010004D0B00080B020008A51A000800000000A4
:10002000000000000000000000000000A711000810
:100030006D08000800000000B10D00087F130008E3
:100040001B0100081B0100081B0100081B01000820
:100050001B0100081B010008A9080008D1080008BE
:10006000F908000821090008490900081B010008D7
:100070001B0100081B0100081B0100081B010008F0
:100080001B0100081B0100081B0100081B010008E0
:100090003D1A00081B0100081B0100087109000837
:1000A0001B0100081B0100081B0100081B010008C0
:1000B0001B010008E11300081B0100081B010008D8
:1000C0001B0100081B0100081B0100081B010008A0
:1000D0001B0100081B010008191800081B0100087B
:1000E0001B0100081B0100081B010008DFF80CD0F1
:1000F00000F04EF8004800474D280008880B00200B
:100100000648804706480047FEE7FEE7FEE7FEE7B1
:10011000FEE7FEE7FEE7FEE7FEE7FEE781130008E5
:10012000ED00000840EA01039B0703D009E008C97D
:10013000121F08C0042AFAD203E011F8013B00F8AC
:10014000013B521EF9D2704730B5044600200346E9
:1001500000E05B1C934203D2E05CCD5C401BF8D016
:1001600030BD30B50B46014600202022012409E0B5
:1001700021FA02F59D4205D303FA02F5491B04FA60
:1001800002F52844151EA2F10102F1DC30BD000089
:10019000064C074D06E0E06840F0010394E80700D4
:1001A00098471034AC42F6D3FFF7A4FF80640008F0
:1001B000A064000870B58C1810F8015B15F00703F7
:1001C00001D110F8013B2A1106D110F8012B03E0F0
:1001D00010F8016B01F8016B5B1EF9D12B0705D4F8
:1001E0000023521E0DD401F8013BFAE710F8013B41
:1001F000CB1A921C03E013F8015B01F8015B521E5D
:10020000F9D5A142D8D3002070BD00BFFEE70000A1
:1002100010B50021837A012202FA03F13D4A1268E7
:1002200042F001023B4B1A603A4A1C3212688A4380
:10023000384B1C331A60027BCAB9364A0C3212683A
:100240008A43344B0C331A604288C38842EA034322
:10025000304A4032847A42F834300288838842EA55
:1002600003432C4A4032847A02EBC4025360027B7F
:10027000012A19D1274A0C3212680A43254B0C3344
:100280001A604288038842EA0343224A4032847A51
:1002900042F83430C288838842EA03431D4A403220
:1002A000847A02EBC4025360C27A3AB9194A121D29
:1002B00012688A43174B1B1D1A6006E0154A121D6F
:1002C00012680A43134B1B1D1A60028932B9114A86
:1002D000143212688A430F4B14331A600289012AC0
:1002E00006D10C4A143212680A430A4B14331A60BE
:1002F000427B012A06D1074A1C3212680A43054B89
:100300001C331A60034A126822F00102014B1A6082
:1003100010BD0000006600401AB143690B43436101
:1003200002E043698B434361704730B502460020C9
:100330000023146824F002041460146844F00104DB
:10034000146000E05B1C546804F001041CB94FF613
:10035000FF74A342F6D1546804F001040CB90020E4
:100360006CE08C79012C04D1146844F08004146092
:1003700003E0146824F080041460CC79012C04D1CB
:10038000146844F04004146003E0146824F040044E
:1003900014600C7A012C04D1146844F02004146019
:1003A00003E0146824F0200414604C7A012C04D17A
:1003B000146844F01004146003E0146824F010047E
:1003C00014608C7A012C04D1146844F00804146081
:1003D00003E0146824F008041460CC7A012C04D1E2
:1003E000146844F00404146003E0146824F0040466
:1003F00014608C78A407CD7844EA05640D7944EA4A
:1004000005444D7944EA05540D886D1E2C43D46192
:10041000146824F001041460002300E05B1C54689D
:1004200004F001041CB14FF6FF74A342F6D15468E6
:1004300004F001040CB1002000E0012030BD0000F8
:100440002DE9F0418AB004460D4616461F46DDF8F8
:1004500040800121042000F0E1FC0121480600F069
:10046000CDFC4FF48050ADF8240003208DF8260019
:1004700018208DF8270009A92D4800F09FFA4FF4A5
:100480000060ADF8240048208DF8270009A928480D
:1004900000F094FA00208DF81E008DF81F008DF8F2
:1004A000200001208DF8210000208DF822008DF819
:1004B00023008DF81A808DF81B408DF81C608DF894
:1004C0001D50ADF8187006A91A48FFF72EFF00203E
:1004D0008DF812008DF8130001208DF81400002013
:1004E000ADF80800ADF80A00ADF80C00ADF80E004C
:1004F000ADF8100001208DF8150002A8FFF788FE66
:10050000012202210B48FFF707FF14208DF8040099
:1005100001208DF8050000208DF8060001208DF8DF
:10052000070001A800F016FB00200AB0BDE8F0812A
:10053000000801400064004010B500F5D87303EBDB
:1005400001131B6803F004031372137A53B900F507
:10055000D87303EB01131B6840F2FF7404EA535392
:10056000136009E000F5D87303EB01131B686FF00B
:10057000604404EAD303536000F5D87303EB01131E
:100580001B6803F00203537200F5D87303EB0113E9
:100590005B6803F00F03937200F5D87303EB01134C
:1005A0005B681B0AD37400F5D87303EB01139B68D7
:1005B000D37200F5D87303EB01139B681C0A147304
:1005C00000F5D87303EB01139B681C0C547300F502
:1005D000D87303EB01139B681B0E937300F5D8735C
:1005E00003EB0113DB68D37300F5D87303EB01133E
:1005F000DB681C0A147400F5D87303EB0113DB6885
:100600001C0C547400F5D87303EB0113DB681B0E4C
:10061000937421B9C36843F02003C36003E0036906
:1006200043F02003036110BD10B50246002093681B
:1006300003F08063B3F1806F00D110E0936803F0A2
:100640000063B3F1006F01D1012008E0936803F06B
:100650008053B3F1805F01D1022000E00420042820
:1006600074D002F5C07303EB00131B6803F00104A0
:1006700002F5C07303EB00131C600B7A7BB94B7A55
:100680000C8843EA445302F5C07404EB0014246858
:10069000234302F5C07404EB0014236010E00B7ACE
:1006A0004C6843EAC4034C7A234302F5C07404EB5C
:1006B00000142468234302F5C07404EB0014236083
:1006C0008B7A03F00F038B7202F5C07303EB0013F8
:1006D0005B6823F00F0402F5C07303EB00135C604A
:1006E00002F5C07303EB00135B688C7A234302F5B9
:1006F000C07404EB001463608B7B1C064B7B44EAE4
:1007000003440B7B44EA0323CC7A234302F5C074F1
:1007100004EB0014A3608B7C1C064B7C44EA03446E
:100720000B7C44EA0323CC7B234302F5C07404EB27
:100730000014E36002F5C07303EB00131B6843F081
:10074000010402F5C07303EB00131C6010BD70B50B
:1007500004460D46D4F8A00050F82500C0F3074623
:100760004FF0FF30D4F8A41021F81500012104F156
:10077000B400815531462046D4F8B020904770BD72
:100780002DE9FF4FDDE90D456CE0A5EB020A4FFABC
:100790008AF3002B04DD91F800A00AFA03FA05E0C1
:1007A00091F800A0C3F1000B4AFA0BFA0AF0FF0C13
:1007B000002B02DDC5F1080A01E0C2F1080A0AF0C7
:1007C000FF08804501DD824600E0C246564605EB43
:1007D000060B4FF0FF0A0AFA0BFAC5F1080E4FF0AC
:1007E000FF0B4BFA0EFB4AEA0B0A0AF0FF072CEA52
:1007F000070994F800A00AEA070A84F800A094F810
:1008000000A04AEA090A84F800A002EB060A0AF0EE
:10081000FF0A5246BAF1070F0BDD0022DDF80CA0EB
:10082000BAF1000F02D04FF0FF3A01E04FF0010A99
:10083000514405EB060A0AF0FF0A5546BAF1070FC4
:100840000BDD0025DDF83CA0BAF1000F02D04FF01F
:10085000FF3A01E04FF0010A5444A0EB060A0AF007
:10086000FF0000BF002890DCBDE8FF8F704700004C
:100870000146481C80B10A48B0F90000814205D108
:1008800007480088401E00B2054A1080002001EB96
:100890004102044B03F832004FF0FF307047000074
:1008A000EC0500200006002010B5012000F07AF8C9
:1008B00028B103A001F0FAF8012000F06DF810BD96
:1008C000455854495F4C696E65300D0A00000000C0
:1008D00010B5022000F066F828B103A001F0E6F898
:1008E000022000F059F810BD455854495F4C696E1C
:1008F00065310D0A0000000010B5042000F052F828
:1009000028B103A001F0D2F8042000F045F810BD92
:10091000455854495F4C696E65320D0A000000006D
:1009200010B5082000F03EF828B103A001F0BEF891
:10093000082000F031F810BD455854495F4C696EED
:1009400065330D0A0000000010B5102000F02AF8F1
:1009500028B103A001F0AAF8102000F01DF810BD86
:10096000455854495F4C696E65340D0A000000001B
:1009700010B5202000F016F828B103A001F096F879
:10098000202000F009F810BD455854495F4C696EAD
:1009900065350D0A0000000001490860704700003D
:1009A0001404014001460020034A12680A400AB1BB
:1009B000012000E000207047140401402DE9F041BF
:1009C000024600250026002000230024002791F87D
:1009D00003C00CF00F0591F803C00CF0100CBCF133
:1009E000000F03D091F802C04CEA050591F800C051
:1009F000BCF1000F31D0146800202BE04FF0010C47
:100A00000CFA00F3B1F800C00CEA03069E4220D1B4
:100A100083004FF00F0C0CFA03F7BC4305FA03FCFC
:100A20004CEA040491F803C0BCF1280F06D14FF042
:100A3000010C0CFA00FCC2F814C00AE091F803C0E3
:100A4000BCF1480F05D14FF0010C0CFA00FCC2F8C4
:100A500010C0401C0828D1D31460B1F800C0BCF10C
:100A6000FF0F34DD546800202EE000F1080C4FF039
:100A7000010808FA0CF3B1F800C00CEA03069E4224
:100A800021D183004FF00F0C0CFA03F7BC4305FA99
:100A900003FC4CEA040491F803C0BCF1280F05D113
:100AA00000F1080C08FA0CF8C2F8148091F803C0A1
:100AB000BCF1480F07D100F1080C4FF0010808FA0B
:100AC0000CF8C2F81080401C0828CED35460BDE852
:100AD000F08170B504460E46D4F83C01008860B33E
:100AE000002527E004F1B400405D0F2820D02068E5
:100AF0000078A8421CD004F5A270405D00280BDCF1
:100B0000D4F8380120B129462046D4F8382190473E
:100B1000012104F1B400415504F5A270405D401E6E
:100B2000C1B204F5A27041552946204601F0F2FEFB
:100B3000681CC5B2802DD5DB05E0B4F93401FFF7A0
:100B400097FEA4F8340170BD00BFFEE700BFFEE7CA
:100B50007047000070B5002100230F22C47804B351
:100B6000154C246804F4E064C4F5E064210AC1F182
:100B70000403CA40447804FA03F184781440214302
:100B800009010E4C0678A155047804F01F050124D4
:100B9000AC4005786D11AD0005F1E025C5F80041C8
:100BA00009E0047804F01F050124AC40044D0678E8
:100BB000761145F8264070BD0CED00E000E400E041
:100BC00080E100E002490143024A116070470000E1
:100BD0000000FA050CED00E070B504460D4616461F
:100BE000204605F0A9FA002070BD0000F8B50446C3
:100BF0000E461746A834B4F90400FFF739FEA0806A
:100C000054F8A809008880B1D4F8A800058805EB3D
:100C10004500C0EBC5100023054A19460090204648
:100C200000F0C2FAA4F8AC0000BF0020F8BD00003C
:100C3000B30D000870B504460D461646204601F077
:100C4000D9FE204601F090FE002070BD30B503466D
:100C50000C46D3F80C02007860B9002106E00020B1
:100C6000D3F8105245F82100481CC1B293F809028C
:100C70008842F4DC002030BD70B505460C464FF0CC
:100C8000FF3004EBC402A96801EB42014880002058
:100C900004EBC402A96801EB4201C880E1B2284616
:100CA00004F078FF70BD70B505460C464FF0FF307C
:100CB00004EBC402A96801EB4201888004EBC40183
:100CC000A86810F8110020F0010004EBC402A96824
:100CD00001F81200E1B2284604F05CFF70BD00008C
:100CE0002DE9F84304464FF4C05760690589A069AF
:100CF000B0F80880BDB114E06A4639462046D4F801
:100D0000E83198470646009830B90A493068C16210
:100D10003068C1633068C165781C87B2681C85B2D1
:100D200000BF4545E8DD0021204601F015F8BDE88B
:100D3000F8830000C11500082DE9F04104460025A4
:100D400060690689A069078986B32DE005EBC502B5
:100D5000A16801EB4201B1F90200FFF789FD05EB43
:100D6000C502A16801EB4201488005EBC502A168FC
:100D700001EB4201B1F90400FFF77AFD05EBC50272
:100D8000A16801EB42018880002005EBC502A16843
:100D900001F8120005EBC502A16801EB4201C88011
:100DA000681CC5B2701C86B2BE42CFDDBDE8F081C2
:100DB0007047FEB504460E46D4F8A8000088A8B1D6
:100DC0002068007800F5E065ADF8005001208DF84E
:100DD000030000208DF8020094F87C008DF80400D8
:100DE0006946D4F8E40101F0EDF905E0B4F9AC008E
:100DF000FFF73EFDA4F8AC00FEBD000029B1064A95
:100E0000D2690243044BDA6104E0034AD2698243A7
:100E1000014BDA61704700000010024029B1064A18
:100E200092690243044B9A6104E0034A9269824347
:100E3000014B9A61704700000010024030B500215C
:100E40000022002400232D4D6D6805F00C0121B116
:100E5000042905D0082923D105E0294D056022E0A9
:100E6000274D05601FE0254D6D6805F47012234D78
:100E70006D6805F48034022505EB92421CB9214DC2
:100E8000554305600BE01D4D6D6805F400351DB13F
:100E90001C4D5543056002E0194D5543056002E0C5
:100EA000174D056000BF00BF144D6D6805F0F001DF
:100EB0000909154D6B5C0568DD4045600F4D6D6897
:100EC00005F4E061090A104D6B5C4568DD40856002
:100ED0000A4D6D6805F46051C90A0B4D6B5C45689D
:100EE000DD40C560054D6D6805F44041890B074D37
:100EF0006B5CC568B5FBF3F5056130BD00100240C1
:100F000000127A0000093D000000002010000020BF
:100F10002DE9F8430546884614461E466A46414672
:100F20002846D5F8E83198470746009830B938790F
:100F3000A04203DD386800EB0410C6600098BDE8ED
:100F4000F88300002DE9FC4104460D46606946889F
:100F500066B1C5EBC50000EB400104F1280010F8B4
:100F600021003044A1694988884201DDBDE8FC8147
:100F7000C5EBC50000EB400204F1280010F8220088
:100F80003044616851F83000806B07784FF0FF31D2
:100F9000C5EBC50000EB400204F1280000EB820025
:100FA000A0F84C108521C5EBC50000EB400204F110
:100FB000280000EB820081702D49C5EBC50000EBD5
:100FC000400204F1280000EB8200807ACDE90001A4
:100FD000C5EBC50000EB400C04F1280000EB8C00D1
:100FE0000389C5EBC50000EB400C04F1280010F8A4
:100FF0002C20C5EBC50000EB400C04F1280000EBF1
:101000008C004178204604F0D6FE1949C5EBC50096
:1010100000EB400204F1280000EB82004160C5EBC8
:10102000C50000EB400104F1280000EB8100006DD9
:1010300058B1C5EBC50000EB400104F1280000EBFE
:1010400081003946026D20469047C5EBC50000EB94
:10105000400104F1280000EB810040680449884207
:1010600003D1E9B2204604F064FD00BF7EE7000032
:10107000000004052DE9FF4104460D46C5EBC500FF
:1010800000EB400104F1280000EB8100C06888B942
:10109000C5EBC50000EB400104F1280000EB810026
:1010A0000169C5EBC50000EB400204F1280000EB2C
:1010B0008200C160C5EBC50000EB400104F12800CF
:1010C00000EB8100C0680390012003AACDE9002055
:1010D0000290C5EBC50000EB400704F1280000EBCF
:1010E000870000F11403C5EBC50000EB400704F1D5
:1010F000280000EB8700827AC5EBC50000EB4007B3
:1011000004F1280000EB87000189204600F0F0FE82
:1011100006461EB1304604B0BDE8F0810020FAE773
:10112000F0B504461546C1EBC10000EB400704F1E1
:10113000280000EB870000692844202801D9FF20FF
:10114000F0BDC1EBC10000EB400704F1280000EB4B
:101150008700066900220FE09F5CC1EBC10000EB35
:10116000400C04F1280000EB8C00143006EB020C5C
:1011700000F80C70501CC2B2AA42EDD3C1EBC10002
:1011800000EB400704F1280000EB870000694719D5
:10119000C1EBC10000EB400C04F1280000EB8C0017
:1011A00007610020CCE770472DE9F05F82468B464F
:1011B000914698460026274C40E0B9F1000F3AD0FE
:1011C0002078B8BB2448B0F90000401C864205D105
:1011D00021480088401C00B21F49088001F0DEF859
:1011E000054647464FF6FF70874201D2384601E078
:1011F0004FF6FF70074619480068A8420AD91748F9
:101200000068401BB84205D9E819144908603846FF
:1012100004F068FFC4F80890C4F804A0C4F80CB047
:1012200008EB050020610A986061012020703046BB
:10123000BDE8F09FFFE7701C06B218340648B0F90D
:101240000000401C864201DC082EB6DB4FF0FF3068
:10125000EEE7000000060020EC050020E805002075
:1012600010B500F001F810BD0CB500200190009001
:101270003348006840F480303149086000BF30488E
:10128000006800F4003000900198401C0190009824
:1012900018B90198B0F5A06FF1D12948006800F4A1
:1012A000003010B10120009001E000200090009873
:1012B000012843D12348006840F01000214908600C
:1012C0000846006820F0030008600846006840F007
:1012D000020008601A48406819494860084640689A
:1012E00048600846406840F48060486008464068AE
:1012F00020F47C1048600846406840F4E8104860DC
:101300000846006840F08070086000BF0C48006824
:1013100000F000700028F9D00948406820F0030070
:10132000074948600846406840F00200486000BF36
:101330000348406800F00C000828F9D10CBD0000FB
:10134000001002400020024070B504460D462046C1
:1013500004F05AFD70BD042808D14FF0E02109695E
:1013600041F004014FF0E022116107E04FF0E0216D
:10137000096921F004014FF0E022116170477047C4
:1013800010B51348006840F0010011490860084694
:101390004068104908400E494860084600680E49F8
:1013A00008400B4908600846006820F48020086067
:1013B0000846406820F4FE0048604FF41F00886033
:1013C000FFF74EFF4FF000600449086010BD0000B9
:1013D000001002400000FFF8FFFFF6FE08ED00E0FD
:1013E00010B50121124800F07EF801281FD101211B
:1013F0000F4800F069F80F480068401C0D4908606C
:10140000084600680C490968884202D3002009494F
:1014100008600848006809490968884207D108A09F
:1014200000F044FB00F098F90AA000F03FFB10BD6B
:10143000000400402C000020340000203000002078
:10144000696E2074696D6564697370617463680D99
:101450000A0000006F75742074696D6564697370AB
:10146000617463680D0A00001FB501210220FFF7B7
:10147000C5FC40F2E730ADF808004720ADF80400A5
:101480000020ADF80600ADF80A0001A90D4800F0F3
:1014900045F8012211460B4800F036F801210948B1
:1014A00000F015F81D208DF8000000208DF80100D7
:1014B0008DF8020001208DF803006846FFF74AFB13
:1014C0001FBD000000040040CA430282704721B1E2
:1014D000028842F00102028004E002884FF6FE73A7
:1014E0001A400280704730B50246002000230024D5
:1014F000158A05EA0103958905EA010413B10CB1C7
:10150000012000E0002030BD1AB183890B438381A4
:1015100002E083898B4383817047000000220288A8
:101520001D4B98420ED01D4B98420BD0B0F1804F0E
:1015300008D01B4B984205D01A4B984202D01A4B48
:10154000984204D14FF68F731A404B881A43174BB9
:10155000984207D0164B984204D04FF6FF431A40EA
:10156000CB881A4302808B8883850B8803850A4BBE
:1015700098420BD0094B984208D00E4B984205D0A8
:101580000D4B984202D00D4B984201D10B7A038645
:101590000123838270470000002C01400034014089
:1015A0000004004000080040000C00400010004013
:1015B0000014004000400140004401400048014048
:1015C0002DE9F04104460E4617468220005DE0B347
:1015D000022F04D0032F03D0052F37D101E000BF25
:1015E00000BF61690989606800EBC108A6EB0800CB
:1015F000C0F3C70505EBC502A16801EB4201B1F9D3
:101600000200FFF735F905EBC502A16801EB4201C5
:10161000488005EBC502A16801EB4201B1F9040065
:10162000FFF726F905EBC502A16801EB42018880AE
:10163000002005EBC502A16801F8120029462046EA
:10164000FFF71AFB0020BDE8F08101E000BF00BFFA
:101650000020F8E770B504460B460020106041F208
:101660001605601BAC4241D017DC41F20605A4EB25
:101670000500AC4230D009DCB4F5805F24D06FF4B3
:101680008050204410B3042842D121E00A2827D0FA
:101690000B2827D00E283BD126E040F2EA56851BC6
:1016A000B0422BD008DC022822D0A0F26A2008B376
:1016B000B0F5C07F2CD11FE0A5F6221505B3DE2DB5
:1016C00020D0DF2D24D121E0002125E0012123E0DD
:1016D0000221154810601FE00321144810601BE030
:1016E000042119E0052117E0062115E0072113E088
:1016F000082111E009210FE00A210DE00B210BE088
:101700000C2109E00D210A48106005E00E2103E0DC
:1017100008481860002070BD00BF0020186006480F
:1017200000EBC100F7E70000A4000020BC0000208F
:1017300070030020000002069863000802469F2AFA
:1017400004D1087808B10348704700BF00BF0020EB
:10175000FAE70000300009062DE9F0414FF6FF7668
:1017600000F01CFE07462948006800EB070800252A
:10177000274C25E0207800F00100F0B120694045B9
:1017800013D8606910B90220207016E06069B7FBB9
:10179000F0F100FB11706169081A206103202070CC
:1017A0002069B04209D2266907E02069A0EB080051
:1017B00020612069B04200D22669681C05B2183445
:1017C0001448B0F900008542D4DD10480660304668
:1017D00004F088FC00250E4C10E0207800F0020098
:1017E00048B1207820F002002070A06818B1D4E938
:1017F000022160689047681C05B218340548B0F9AA
:1018000000008542E9DDBDE8F0810000E805002028
:1018100000060020EC05002010B540F225511D48BF
:1018200000F04AF810B31B4800F002F9C4B21A489D
:10183000008800F40040C8B91748008800F48040D0
:1018400060B10A2C03D000201349088020E0124820
:10185000008840F400401049088019E00D2C06D1A2
:101860000D48008840F480400B49088010E00A4889
:101870000088C0F30D0009490C5407480088401C3B
:101880000549088008460088C72801DD0020088037
:1018900010BD000000440040FC050020C0060020F0
:1018A00021B1828942F40052828104E082894DF69E
:1018B000FF731A408281704770B5024600240023EE
:1018C0000025002040F66A16B14200D100BFC1F3E6
:1018D000421501F01F03012606FA03F3012D02D180
:1018E0009689334006E0022D02D1168A334001E08A
:1018F000968A33400C12012606FA04F41688344006
:1019000013B10CB1012000E0002070BDF0B503461A
:10191000002400260025002040F66A17B94200D1B5
:1019200000BF1846C1F3421401F01F06012707FA51
:1019300006F5012C01D10C3004E0022C01D110304D
:1019400000E014301AB107682F43076002E007680F
:10195000AF430760F0BD00002DE9F04786B00546B3
:101960000E460024A24600BFA1460027B08900B160
:1019700000BF2F462C8A4CF6FF700440F0880443C9
:101980002C82AC894EF6F3100440B08831890843AC
:10199000718908430443AC81AC8A4FF6FF40044090
:1019A000B0890443AC8201A8FFF748FA1F48874278
:1019B00002D1DDF810A001E0DDF80CA0A88900F448
:1019C000004040B10AEBCA0000EB0A103168490040
:1019D000B0FBF1F807E00AEBCA0000EB0A1031682F
:1019E0008900B0FBF1F86420B8FBF0F00401200995
:1019F000642101FB1089A88900F4004040B1322025
:101A000000EBC900B0FBF1F000F00700044308E070
:101A1000322000EB09106421B0FBF1F000F00F0060
:101A200004432C8106B0BDE8F08700000038014077
:101A300001468888C0F308007047000010B588B0E0
:101A40006A4600211548FEF777FD009880B2ADF890
:101A500014009DF80900022803D101208DF816001A
:101A600005E09DF8090010B900208DF816009DF8DA
:101A70000A008DF81700002405E00DF10B00015D50
:101A800006A80155641C9DF80A00A042F5D805A9D6
:101A9000034800F049FB08B010BD0000006400409E
:101AA000A803002000BFFEE7704700000FB4054BFD
:101AB00010B503A9044A029800F0A4F810BC5DF820
:101AC00014FB000081230008F805002002E008C88C
:101AD000121F08C1002AFAD170477047002001E0A8
:101AE00001C1121F002AFBD1704700002DE9FC5FE5
:101AF00081468A4614469846DDE90C6B01AA514698
:101B00004846D9F8E83198470546019810B1019840
:101B1000BDE8FC9F2879A04209DC2C4800231A4626
:101B200021460090504600F083FA2848F0E70E98CE
:101B300080B1286800EB0410007800F0010048B183
:101B4000234800231A4621460090504600F070FAC0
:101B50001F48DDE7B8F1000F02D14FF00060D7E772
:101B6000286800EB041040683168884206D928686C
:101B700000EB0410406830601648C9E7286800EBA5
:101B8000041040788BF80000286800EB04104768C8
:101B9000286800EB04103A4681684046FEF7C2FA16
:101BA0009BF80000092801D037600DE0286800EBA1
:101BB000041040683168884205D2002008F8070008
:101BC000781C306000E037600020A1E711000906B2
:101BD0000100010605000405704770477047704713
:101BE00070477047704710B5029C10BD704710B524
:101BF0000446206A007820B981220021204600F0A6
:101C00009CFE10BD2DE9FF4F89B09B460446002580
:101C100006E025280BD05A460B999047641C6D1C92
:101C200020780028F5D10DB02846BDE8F08F0027B8
:101C3000B8460122474900E0074314F8013F203B22
:101C400002FA03F00842F7D120782E2819D114F8AF
:101C5000010F47F004072A280ED06FF02F022078DA
:101C6000A0F1300109290CD808EB880102EB4101F1
:101C700000EB0108641CF2E70A98641C50F8048B1E
:101C80000A9020780028CED0642808D0692806D091
:101C900075281ED05A460B9990476D1C58E00A993A
:101CA0004FF00A0901C90A91002802DA40422D21A9
:101CB00002E0390504D52B218DF82010012103E025
:101CC000F90704D02021F7E78A4608AE0DE000218D
:101CD000FAE70A994FF00A0901C90A91F7E749465C
:101CE000FEF73FFA303106F8011D0028F7D1ADEBC1
:101CF000060000F12009780701D44FF00108C8451B
:101D000002DDA8EB090000E000208046002706E085
:101D100008A85A46C05D0B9990476D1C7F1C57451B
:101D2000F6DB04E030205A460B9990476D1CB8F161
:101D30000001A8F10108F5DC05E016F8010B5A4690
:101D40000B9990476D1CB9F10001A9F10109F4DC70
:101D5000641C65E7092801002DE9FE4F04460F4683
:101D6000002500264FF003096069B0F8088060691B
:101D7000B0F80AA0A069B0F808B08220005D10B9E0
:101D80000020BDE8FE8FB8F1000F73D00020009056
:101D900001900290A6E0B9F1030F06D0B9F1050F4A
:101DA0006AD0B9F10B0F68D18CE0606850F8380048
:101DB0008069006800F0004010B14FF00B0990E01E
:101DC000606850F83800866A4FB33078012826DB07
:101DD0003078F02823DC05EBC501A06810F811006D
:101DE000401CC0B205EBC502A16801F812003178B1
:101DF000884214D1002005EBC502A16801F8120049
:101E00000090019002906A462946204600F015F99C
:101E100010B14FF00B0964E04FF0050949E057B3EA
:101E20003078FC282AD105EBC501A06800EB410001
:101E3000821D2946204600F000F960B105EBC5017E
:101E4000A06810F8110020F0010005EBC502A168A0
:101E500001F812000BE005EBC501A06810F81100B5
:101E600040F0010005EBC502A16801F812004FF037
:101E70000B0936E03AE001E01CE030E00FB13078C9
:101E800070B1A7B93078FF2802D03078FE280ED183
:101E900005EBC501A06810F8110000F0010030B991
:101EA0002946204603F076FE4FF00B0901E04FF083
:101EB0000B0916E06A462946204603F015FF4FF04D
:101EC0000B090EE0681CC5B208F101001FFA80F88A
:101ED0000AF101001FFA80FA4FF0030901E0FF2028
:101EE0004FE700BFD8457FF756AF00BF002048E757
:101EF0002DE9FF4F83B080468B461546109C02AA01
:101F000059464046D8F8E83198470646029818B135
:101F1000029807B0BDE8F08F3079A84209DC3F484D
:101F20000090002229465846236800F081F83B487B
:101F3000EFE7119878B1306800EB051000780228BF
:101F400009D137480090002229465846236800F0FE
:101F50006FF83348DDE7306800EB051090F801902A
:101F6000306800EB05104768306800EB0510D0F8CA
:101F70000CA0206810B12068B84243D8D8F82420BB
:101F80004846069990470290029848B102980090FE
:101F90003A4629465846236800F04AF80298B8E7BE
:101FA000316801EB0511886822680699FEF7BAF8D6
:101FB000B9F1090F09D12068B84206D20020316872
:101FC00001EB05118968226888542760BAF1000F77
:101FD00008D02A4631464046D0470290029808B1C0
:101FE000029896E7306800EB0510007800F00400D6
:101FF00030B12A4659464046D8F8EC31984788E730
:10200000002086E72760074800903A462946584650
:10201000236800F00DF803487BE700001100090673
:1020200002000106100007067047034600207047B3
:1020300030B50546039C002030BD2DE9F04F8DB032
:1020400004468846154661690989606800EBC1004D
:1020500000EBC8000C9061694989606800EBC10021
:1020600000EBC80B4FF000090026DBF80000806889
:102070000B900C98006880690088C0F30A002880E3
:102080000020A87000BF00200890099009F101000D
:10209000DBF8001001EB0010D0F808A0DAF800001F
:1020A000000C07909AF800707FB3F01940282CD8E4
:1020B000781E012101EBD0000690BAF80000C0F3B1
:1020C00007200590012000210AAA06ABCDE90032C5
:1020D000CDE9021008AB2046059A0799FFF706FDE7
:1020E00018B1FF200DB0BDE8F08F002206F0070008
:1020F000291D01EBD601CDE901020091F8B213468A
:1021000008A9FEF73DFB3E4400BF09F1010000F0C5
:10211000FF090B9800784845B5DC701E012101EBE2
:10212000D000E8700020DDE770B504460D462E882B
:10213000F0110F2843D2DFE800F03A08191A1B1CEF
:102140001D1E1F2021292A423200802E06D1802008
:10215000005D50B1204603F0C9FC06E07F20005D21
:1021600018B12946204600F095FC28E000BF00BFCA
:1021700000BF00BF00BF00BF00BF00BF8220005DE6
:1021800018B12946204600F09FFD18E000BF7E20D0
:10219000005D18B12946204600F004FF0FE08120C1
:1021A000005D18B12946204600F002FD07E0206AD4
:1021B000007818B12946204600F089FC00BF00BF16
:1021C00070BD0000F0B585B007460D466C46288806
:1021D0002060A87810B10220607201E000206072D7
:1021E00000202072E878A072002605E0281D815D9D
:1021F00004F10B008155761CE878B042F6D82146F0
:102200000448FEF711FA042802D1FF2005B0F0BD02
:102210000020FBE70064004010B56FF00400FFF7FA
:102220009AF80A4800680A49B0FBF1F009490870B9
:102230000846007800EB4001C1EBC0104FF6FF717B
:1022400001EAC0000449088010BD00001800002009
:1022500000127A00F4050020F60500200146114A1C
:1022600012884A434FF0E0235A6100229A611A46CD
:10227000126942F001021A6100BF4FF0E0221069BA
:1022800000F001021AB100F48032002AF5D04FF0BC
:10229000E022126922F001024FF0E0231A610022CD
:1022A0009A617047F605002010B50446054B0022E0
:1022B00041F203012046FEF72BFE0020D4F80C1259
:1022C000087010BD4D0C000870472DE9FE4F044604
:1022D0000F4615469946DDE90CA802AB2A46394659
:1022E000204600F0A2F8064636B9012D04D19DF82B
:1022F0000810204603F01DFC9EBB022D31D19DF835
:102300000810C1EBC10101EB410204F1280101EB0E
:102310008201B1F94C00FEF7ABFA9DF80810C1EB51
:10232000C10101EB410204F1280101EB8201A1F896
:102330004C0085219DF80800C0EBC00000EB400276
:1023400004F1280000EB820081709DF80800C0EBCA
:10235000C00000EB400104F1280000EB8100C0F850
:1023600004804B463A4629462046CDE900A803F0B2
:1023700022FD064616B1FF20BDE8FE8F0020FBE7D8
:1023800000BF054A128802F04002002AF9D0C2B20A
:10239000014B1B1D1A8070470044004000200D496E
:1023A00009680D4A1268914205D90A4909680A4A22
:1023B0001268891A07E007490968084A1268114437
:1023C000054A1268891A084602490968024A1160DA
:1023D000704700002C00002038000020340000204E
:1023E000014608680078704730B503460C46002166
:1023F00017E0C1EBC10000EB400503F1280000EB42
:102400008500807858B91170C1EBC10000EB400520
:1024100003F1280000EB85004470002030BD481C0B
:10242000C1B20129E5DBFF20F8E770B504460D468F
:1024300000212FE0C1EBC10000EB400604F12800B1
:1024400000EB8600807818B3C1EBC10000EB4006BA
:1024500004F1280000EB86008078852818D0C1EBB5
:10246000C10000EB400604F1280010F82600A84245
:102470000ED1C1EBC10000EB400604F1280000EBD7
:1024800086004078904203D103B11970002070BDDE
:10249000481CC1B20129CDDBFF20F8E730B5034667
:1024A000C1EBC10000EB400403F1280000EB840005
:1024B000C06810B90020106013E0C1EBC10000EB50
:1024C000400403F1280000EB8400C468C1EBC100A4
:1024D00000EB400503F1280000EB85000069201A9D
:1024E0001060002030BD0000F8B50446204B0022EB
:1024F00041F217012046FEF70BFD002084F8E001B1
:10250000002516E0D4F8A00030F8250086B276B198
:102510000020009006EB4600C0EBC613154A294682
:102520002046FEF741FED4F8A41021F81500681CDF
:10253000C5B2D4F89C000078A842E3DCD4F8A80027
:10254000008898B1D4F8A800068806EB4600C0EBD6
:10255000C610009006EB4600C0EBC613064A0021E9
:102560002046FEF721FEA4F8AC0000BFF8BD000035
:10257000ED0B00084F070008B30D000870B50446C6
:1025800000250BE0D4F8A41031F91500FEF770F91E
:10259000D4F8A41021F81500681CC5B2D4F89C002A
:1025A0000078A842EEDCB4F9AC00FEF761F9A4F8BB
:1025B000AC0070BD2DE9F84304460D461746984619
:1025C000DDE90896022E05D0032E03D0042E01D09B
:1025D000052E12D10020664B664A294600902046FF
:1025E000FEF7E2FDC5EBC50101EB410204F1280154
:1025F00001EB8201A1F84C0015E0C5EBC50101EB30
:10260000410204F1280101EB8201B1F94C00FEF70F
:102610002FF9C5EBC50101EB410204F1280101EBE3
:102620008201A1F84C00C5EBC50000EB400104F1AC
:10263000280000F82170C5EBC50000EB400104F153
:10264000280000EB8100A0F80880C5EBC50000EB76
:10265000400104F1280000EB810080F80A90C5EBEE
:10266000C50000EB400104F1280000EB81008670FA
:102670000021C5EBC50000EB400204F1280000EB8F
:102680008200C170C5EBC50000EB400204F12800D8
:1026900000EB8200C160C5EBC50000EB400204F115
:1026A000280000EB82000161C5EBC50000EB400291
:1026B00004F1280000EB820080F83410C5EBC5005F
:1026C00000EB400204F1280000EB820080F8351096
:1026D000C5EBC50000EB400204F1280000EB8200CE
:1026E00080F83610C5EBC50000EB400204F128006D
:1026F00000EB82008163C5EBC50000EB400204F1F2
:10270000280000EB8200C163C5EBC50000EB40026E
:1027100004F1280000EB820080F84010C5EBC500F2
:1027200000EB400204F1280000EB820080F8411029
:10273000C5EBC50000EB400204F1280000EB82006D
:1027400080F84210C5EBC50000EB400204F1280000
:1027500000EB820080F84B10C5EBC50000EB400297
:1027600004F1280000EB820001650020BDE8F88339
:10277000D8B80500450F000810B504462046FFF7FD
:10278000B3FE204600F0F0F810BD10B50446204618
:10279000FFF7F4FE204600F02DF910BDF0B5044619
:1027A0001D46C1EBC10000EB400704F1280000EB1F
:1027B000870000691044202801D9FF20F0BDC1EB3B
:1027C000C10000EB400704F1280000EB870000691E
:1027D0008718C1EBC10000EB400C04F1280000EBAE
:1027E0008C00C068874201D9FF20E7E7C1EBC10038
:1027F00000EB400704F1280000EB87000669002386
:102800000DE0C1EBC10000EB400704F1280000EB34
:1028100087001430F718C05DE854581CC3B29342C7
:10282000EFD3C1EBC10000EB400704F1280000EB3F
:10283000870000698718C1EBC10000EB400C04F170
:10284000280000EB8C0007610020B7E788B000206B
:102850000790FFF7E1FC4FF4A060FEF7B3F94FF4E7
:10286000E13003F045FD00200423082207210090F9
:10287000FDF7E6FDFEF7F8FD17480178174803F06D
:10288000E1FA17A0FFF712F90021144803F0C4FB86
:1028900016A0FFF70BF90521104803F0BDFB16A0A9
:1028A000FFF704F917E00120002105AA06ABCDE9E6
:1028B0000032CDE9021007AB0A4641030748FFF793
:1028C00015F904460FA00799FFF7F0F84FF47A7056
:1028D000FFF7C4FC00BFE6E714000020A8030020B7
:1028E000627265616B310D0A000000006272656101
:1028F0006B320D0A00000000627265616B330D0AD5
:102900000000000076616C7565203D2025750D0A7C
:1029100000000000FEB504460D4645F4E066ADF843
:10292000006001208DF8020000208DF80300694648
:10293000D4F8E401FFF746FCFEBDFEB504460D46A3
:1029400016460020ADF800008DF8020002208DF838
:1029500003008DF804608DF805506946D4F8E40151
:10296000FFF730FCFEBD0000F8B504461F4B002207
:1029700041F20C012046FEF7CBFA1C4B002241F23B
:102980000D012046FEF7C4FAD4F83C01008860B37C
:10299000D4F84001007840B3D4F83C01068806EB37
:1029A0004600C0EBC610009006EB4600C0EBC61315
:1029B0000F4A00212046FEF7F7FBA4F8340100255A
:1029C00010E004F1B400405D0F2809D020680078C1
:1029D000A84205D0D4F84001017804F5A270415511
:1029E000681CC5B2802DECDB00BFF8BD350C0008BB
:1029F000D30A000810B50446B4F93401FDF738FFD6
:102A0000A4F8340110BDF0B587B004460D4620206F
:102A10000690012005AA06ABCDE9012000930390A2
:102A2000C5EBC50000EB400704F1280000EB870070
:102A300000F11403C5EBC50000EB400704F12800CA
:102A400000EB8700827AC5EBC50000EB400704F17C
:102A5000280000EB870001892046FFF747F806466B
:102A600016B1304607B0F0BDC5EBC50000EB400223
:102A700004F1280000EB82000699C1600021C5EB3B
:102A8000C50000EB400204F1280000EB8200016168
:102A90000020E7E72DE9F84305460C46E0780828D2
:102AA00001D0BDE8F883207800F07F0621796079B5
:102AB00041EA002794F80680E01D009043463A461C
:102AC00031462846D5F83CC2E04700BFE9E770B57B
:102AD00004460D4694F87C007F2807D094F87C00CB
:102AE000052803D094F87C0004285FD1687920B1D0
:102AF000687921680978884258D12879802824D0BB
:102B000004DC012807D002284FD111E0812829D008
:102B100082284AD132E094F87C007F2803D094F8D0
:102B20007C00042803D10521204603F075FA3CE01F
:102B300094F87C007F2803D094F87C00052803D10A
:102B40000421204603F068FA2FE094F87C00052861
:102B500003D094F87C00042803D17F21204603F0A1
:102B60005BFA22E0D4F8940018B12046D4F894100F
:102B700088470021204603F04FFA16E02046FFF771
:102B80002FFC0646D4F8980018B12046D4F89810C7
:102B90008847FF20216808703146204603F052F92B
:102BA0000021204603F038FA00BF00BF70BD0000CE
:102BB0002DE9FE4F04460F46387800F07F05B878BF
:102BC000012829D120680078A84279D120680078AE
:102BD00000F5E066ADF8006001208DF803000020EC
:102BE0008DF8020094F87C008DF8040094F8E00160
:102BF00048B19DF8040040F080008DF804000020EA
:102C000084F8E00102E0012084F8E0016946D4F88C
:102C1000E401FFF7D7FA53E0387900F07F08D4F8E1
:102C20004001017804F5A27041559038405D40455F
:102C300009D0424629462046D4F8DC31984704F1B1
:102C4000B40000F8058004F1B400405D20B92946C5
:102C50002046D4F8D821904704F1B400405D0F28F5
:102C60002DD0002625E0D4F8A00050F82600C0F3AF
:102C700007494D451BD1D4F8A00030F826001FFAB3
:102C800080FAD4F8A41031F91600FDF7F1FD002008
:102C900000900AEB4A00C0EBCA130A4A31462046AC
:102CA000FEF782FAD4F8A41021F8160000BF701CB9
:102CB000C6B2D4F89C000078B042D4DC00BF00BF9C
:102CC000BDE8FE8F4F0700082DE9F04F8DB0044698
:102CD0000F4600200B90824683460A9002200990FE
:102CE0004FF00008002500200C90B87800287DD116
:102CF00060698688A06980880790002E77D0ACE054
:102D00000998022802D004280CD113E0606850F81A
:102D1000360080690A900A9800683988884202D192
:102D20000420099098E0681CC5B2701C86B202208D
:102D3000099091E06069C688A069C08807906068C2
:102D400000EBC60050F8350080680B9000200C9016
:102D50005CE0002005900690606800EBC60050F82B
:102D600035100C98401C01EB0010D0F808A0BAF107
:102D7000000F03D1FF200DB0BDE8F08F9AF800904E
:102D8000B9F1000F3DD008EB0900F978B0EBC10FA5
:102D900037DC002005AACDE90020CDE902084FEA82
:102DA000E87008EB5070C010A8EBC000C2B2381D2C
:102DB00000EBE80100234846FDF7E2FCA9F1010021
:102DC000012101EBE00004900120002104AACDE9DB
:102DD00000210290BAF80000C0F30722DAF80000E0
:102DE000010C05AB2046FFF783F801E03AE0C0E0B4
:102DF0000890089808B1FF20BDE708EB090000F033
:102E0000FF080C98401CC0B20C9000BF0B980178D2
:102E10000C9881429DDCE068E0B1606850F83600B3
:102E2000806D00880690069898B1E16831F9150028
:102E3000FDF71EFD00200090069800EB4001C1EB5D
:102E4000C013294620462269FEF7AEF9E16821F851
:102E5000150000BF00208EE700BF079886427FF76D
:102E60004FAF9DE0B8780128FBD1099060690689D1
:102E7000A06900890790002E7BD08DE00998012879
:102E800004D0042816D005280CD175E0606850F8ED
:102E9000360080690A900A9800683988884202D111
:102EA0000420099077E0681CC5B2701C86B201202E
:102EB000099070E0606850F83600D0F828B09BF8B0
:102EC0000000FD2802D10520099064E09BF8000075
:102ED000FC2816D105EBC501A06810F8110000F020
:102EE000010058B105EBC503A26802EB4302911D36
:102EF000D4F8E401FFF766F900203CE705200990CB
:102F000049E09BF80000FF2803D09BF80000FE2852
:102F100030D105EBC502A16801EB4201B1F9020015
:102F2000FDF7A6FC05EBC502A16801EB4201488054
:102F300005EBC502A16801EB4201B1F90400FDF700
:102F400097FC05EBC502A16801EB4201888005EB07
:102F5000C501A06810F8110020F0010005EBC502C2
:102F6000A16801F8120029462046FDF785FE0020E1
:102F700001E715E0FF20FEE604AA29462046FFF7F8
:102F80005CF808B1FF20F6E604A9D4F8E401FFF7E5
:102F900019F90020EFE600BF079886427FF76EAF71
:102FA0000020E8E603B599B00020169014900320A5
:102FB000129000200990032012901998406900880F
:102FC0000890199880690088079000200A90089856
:102FD00050B324E019984168089801EBC0000079CB
:102FE000012802DCFF201BB000BD19984168089839
:102FF00051F8300080690990099801681A98008892
:10300000814204D1012012900A9813900BE00A9893
:10301000401CC0B20A900898401C80B20890DDE9BC
:1030200007108842D6DD00BF129803283DD11998B9
:10303000406940880890199880694088079000206E
:103040000A90089888B32BE019984168089801EB1A
:10305000C0000079032801DCFF20C4E7199841680B
:10306000089851F83000806A0990099801681A9808
:10307000008881420CD1022012900A98139019986E
:103080004168089851F83000806B007814900BE08C
:103090000A98401CC0B20A900898401C80B2089060
:1030A000DDE907108842CFDD00BF1298032801D167
:1030B000FF2098E71A98C07808280CD04FF00061DC
:1030C00000200346CDE90001DDE912211998FFF740
:1030D000FCF8FF2087E716ABDDE912211998FFF70E
:1030E000A4F91890FF201790189828BB129801286F
:1030F0000CD19DF85800C0EBC00000EB40011998BE
:10310000283000EB8100807804280FD01298022824
:1031100015D19DF85800C0EBC00000EB4001199894
:10312000283000EB81008078052808D11A980079B2
:10313000802802D10420179001E0062017901798EC
:10314000FF2803D11A980079401117901798072883
:1031500082F09684DFE810F007006C02D204C60605
:103160004009AE09B10E129801287DD1189880B996
:103170009DF85800C0EBC00000EB400119982830C2
:1031800000EB81008078022801D0012000E00020BF
:103190001890189858B1FE4800210B46CDE9001050
:1031A000DDE912211998FFF790F8FF201BE79DF841
:1031B0005800C0EBC00000EB40011998283000EB2C
:1031C0008100B0F94C00401C88B39DF85800C0EB5A
:1031D000C00000EB40011998283000EB8100B0F9E5
:1031E0004C000290FDF744FB01469DF85800C0EBEF
:1031F000C00000EB40021998283000EB8200A0F8D4
:103200004C100020E34BE44A00909DF858101998A8
:10321000FDF7CAFF01469DF85800C0EBC00000EB67
:1032200040021998283000EB8200A0F84C109DF85D
:103230005800C0EBC00000EB40011998283000EBAB
:10324000810000890E909DF85800C0EBC00000EB93
:1032500040011998283000EB8100807A0D909DF88C
:103260005800C0EBC00000E097E000EB4001199867
:10327000283000EB8100C1781A980079C0F3001063
:1032800081420BD0C5490D98CDE900010E9BDDE9C7
:1032900012211998FFF719F8FF20A4E61A9800796F
:1032A000C0F34200C0F1070015901A98431D9DF825
:1032B0005810159A1998FDF733FF1890189860B1B7
:1032C0004FF000610D98CDE900010E9BDDE9122160
:1032D0001998FEF7FAFFFF2085E69DF85800C0EB2D
:1032E000C00000EB40011998283000EB8100C07845
:1032F000202141EA0010C0B28DF83C0001200B9063
:1033000006E000210FAA0B9811540B98401C0B905B
:103310000B980828F5D30FABDDE91212199802F0CB
:10332000F9FC9DF85800C0EBC00000EB4001199873
:10333000283000EB8100C07808B9012000E00020AF
:1033400000F001019DF85800C0EBC00000EB400206
:103350001998283000EB8200C1701A98007900F0AB
:103360000100002818D09DF858101998FDF782FE2A
:103370001190119858B111990D98CDE900010E9B4B
:10338000DDE912211998FEF7A0FFFF202BE69DF83A
:103390005810199802F0CDFB48E1189880B99DF8B3
:1033A0005800C0EBC00000EB40011998283000EB3A
:1033B00081008078032801D0012000E000201890CF
:1033C000189858B1724900200346CDE90001DDE9A3
:1033D00012211998FEF779FFFF2004E69DF85800A6
:1033E000C0EBC00000EB40011998283000EB8100D1
:1033F000B0F94C00401C88B39DF85800C0EBC000E9
:1034000000EB40011998283000EB8100B0F94C0026
:103410000290FDF72DFA01469DF85800C0EBC00060
:1034200000EB40021998283000EB8200A0F84C1005
:103430000020584B584A00909DF858101998FDF7F5
:10344000B3FE01469DF85800C0EBC00000EB4002FF
:103450001998283000EB8200A0F84C109DF8580015
:10346000C0EBC00000EB40011998283000EB810050
:1034700000890E909DF85800C0EBC00000EB4001A1
:103480001998283000EB8100807A0D909DF8580043
:10349000C0EBC00000EB40011998283000EB810020
:1034A000C1781A980079C0F3001081420BD03B49D3
:1034B0000D98CDE900010E9BDDE912211998FEF768
:1034C00004FFFF208FE51A980079C0F34200C0F195
:1034D000070015901A98431D9DF85810159A1998D1
:1034E000FDF71EFE1890189860B14FF000610D981E
:1034F000CDE900010E9BDDE912211998FEF7E5FEEA
:10350000FF2070E59DF85800C0EBC00000EB4001C3
:103510001998283000EB8100C07808B9012000E03C
:10352000002000F001019DF85800C0EBC00000EB46
:1035300040021998283000EB8200C1701A98007977
:1035400000F0010060B39DF85800C0EBC00000EB34
:1035500040011998283000EB8100B0F94C0002902E
:10356000FDF786F901469DF85800C0EBC00000EB5E
:1035700040021998283000EB8200A0F84C1001217D
:103580009DF85800C0EBC00000EB4002199808E01D
:1035900021000008D8B80500450F00080000030509
:1035A00020E0283000EB820081709DF85800C0EBCD
:1035B000C00000EB40011998283000EB8100006D3D
:1035C000A0B39DF85800C0EBC00000EB4001199873
:1035D000283000EB8100006D0290029A149919982E
:1035E000904723E09DF85800C0EBC00000EB40017D
:1035F0001998283000EB8100C078602141EA001062
:10360000C0B28DF83C0001200B9006E000210FAA0B
:103610000B9811540B98401C0B900B980828F5D36D
:103620000FABDDE91212199802F074FB02F057BAE1
:103630001298012878D11A984179807941EA0020BE
:103640000E901A98C0790D90189858B9F7490D98AE
:10365000CDE900010E9BDDE912211998FEF735FE38
:10366000FF20C0E416AA12991998FEF7BDFE189023
:10367000189858B1ED490D98CDE900010E9BDDE990
:1036800012211998FEF721FEFF20ACE402210D98CB
:10369000CDE900019DF858100E9B139A1998FEF77A
:1036A00089FF1A980079C0F34000E0B31A980079B6
:1036B000C0F38100C0F1040015909DF85800C0EBE4
:1036C000C00000EB40021998283000EB82001599E9
:1036D000C1601A9800F108039DF85810159A1998BE
:1036E000FDF71EFD1890189860B14FF000610D981D
:1036F000CDE900010E9BDDE912211998FEF7E5FDE9
:10370000FF2070E49DF858101998FDF7B3FC119054
:10371000119870B111990D98CDE900010E9BDDE96A
:103720001221199801E00AE054E0FEF7CEFDFF20D7
:1037300059E49DF85810199802F0FBF928E01A98FE
:10374000007900F0010018B31A98017A407A01EB71
:1037500000211A98807A01EB00411A98C07A01EB97
:10376000006015909DF85810159A199802F042FCC7
:103770001890189860B14FF000610D98CDE90001E4
:103780000E9BDDE912211998FEF79FFDFF202AE428
:1037900060208DF83C000E98C0B28DF83D000E9868
:1037A000000A8DF83E000D988DF83F0004200B9024
:1037B00006E000210FAA0B9811540B98401C0B90A7
:1037C0000B980828F5D30FABDDE91212199802F017
:1037D000A1FA92E1189880B99DF85800C0EBC0009A
:1037E00000EB40011998283000EB81008078022816
:1037F00001D0012000E000201890189858B18B49A2
:1038000000200346CDE90001DDE912211998FEF7F9
:103810005CFDFF2021E49DF85800C0EBC00000EBE8
:1038200040011998283000EB8100B0F94C00401C91
:1038300088B39DF85800C0EBC00000EB4001199818
:10384000283000EB8100B0F94C000290FDF710F831
:1038500001469DF85800C0EBC00000EB40021998EB
:10386000283000EB8200A0F84C100020704B714A09
:1038700000909DF858101998FDF796FC01469DF8A8
:103880005800C0EBC00000EB40021998283000EB54
:103890008200A0F84C109DF85800C0EBC00000EB6F
:1038A00040011998283000EB810000890E909DF8A6
:1038B0005800C0EBC00000EB40011998283000EB25
:1038C0008100807A0D909DF85800C0EBC00000EB9D
:1038D00040011998283000EB8100C1781A980079CE
:1038E000C0F3001081420BD053490D98CDE900017F
:1038F0000E9BDDE912211998FEF7E7FCFF2055E445
:1039000015AA9DF858101998FEF7C8FD1598E0BB48
:103910009DF85800C0EBC00000EB4001199828301A
:1039200000EB8100B0F94C000290FCF7A1FF0146CA
:103930009DF85800C0EBC00000EB400219982830F9
:1039400000EB8200A0F84C1001219DF85800C0EB5C
:10395000C00000EB40021998283000EB8200817013
:103960009DF85800C0EBC00000EB400119982830CA
:1039700000EB8100006D88B19DF85800C0EBC000DD
:1039800000EB40011998283000E009E000EB8100CD
:10399000006D0290029A149919989047002005E44E
:1039A000159807284AD99DF85800C0EBC00000EBD5
:1039B00040011998283000EB8100C07808B9012037
:1039C00000E0002000F001019DF85800C0EBC000AD
:1039D00000EB40021998283000EB8200C1709DF87E
:1039E0005800C0EBC00000EB40011998283000EBF4
:1039F0008100C0780007000E8DF83C000DF13D03FA
:103A000007229DF858101998FEF7C8FE18901898CC
:103A1000F0B34FF000610D98CDE900010E9BDDE998
:103A200012211998FEF751FCFF2036E4210000080E
:103A3000D8B80500450F0008000003059DF85800A0
:103A4000C0EBC00000EB40011998283000EB81006A
:103A5000C07808B9012000E0002000F001019DF8C5
:103A60005800C0EBC00000EB40021998283000EB72
:103A70008200C1709DF85800C0EBC00000EB40010F
:103A80001998283000EB8100C0780101159800E0FA
:103A90002DE0C0F1070041EA4000401CC0B28DF8A3
:103AA0003C000DF13D039DF85810159A1998FEF74A
:103AB00075FE1890189860B14FF000610D98CDE92F
:103AC00000010E9BDDE912211998FEF7FEFBFF2095
:103AD0005CE41598401C0B9006E000210FAA0B989F
:103AE00011540B98401C0B900B980828F5D30FAB82
:103AF000DDE91212199802F00DF997E512980128E4
:103B000077D11A984179807941EA00200E901A986D
:103B1000C0790D90189858B9FC490D98CDE900016D
:103B20000E9BDDE912211998FEF7CFFBFF202DE453
:103B300016AA12991998FEF757FC1890189858B1C0
:103B4000F2490D98CDE900010E9BDDE9122119988B
:103B5000FEF7BBFBFF2019E403210D98CDE900011E
:103B60009DF858100E9B139A1998FEF723FD9DF8A7
:103B700058101998FEF747FF1190119858B11199F4
:103B80000D98CDE900010E9BDDE912211998FEF791
:103B90009CFBFF2021E415AA9DF858101998FEF708
:103BA0007DFC1598042825D941208DF83C000E98FD
:103BB000C0B28DF83D000E98000A8DF83E000D98B9
:103BC0008DF83F001598C0B28DF840001598000A96
:103BD0008DF841001598000C8DF842001598000EE4
:103BE0008DF843000FABDDE91212199802F092F83C
:103BF00077E145E01598C0F10400402141EA8000DA
:103C0000C01CC0B28DF83C000E98C0B28DF83D00CB
:103C10000E98000A8DF83E000D988DF83F0010AB0D
:103C20009DF85810159A1998FEF7B8FD1890189835
:103C300060B14FF000610D98CDE900010E9BDDE908
:103C400012211998FEF741FBFF203BE41598001D57
:103C50000B9006E000210FAA0B9811540B98401C02
:103C60000B900B980828F5D30FABDDE912121998C9
:103C700002F050F89DF85810199801F05AFF30E101
:103C8000189880B99DF85800C0EBC00000EB4001C7
:103C90001998283000EB81008078032801D001209A
:103CA00000E000201890189858B1984800210B4661
:103CB000CDE90010DDE912211998FEF706FBFF207F
:103CC0001FE49DF85800C0EBC00000EB40011998BC
:103CD000283000EB8100B0F94C00401C88B39DF8FF
:103CE0005800C0EBC00000EB40011998283000EBF1
:103CF0008100B0F94C000290FCF7BAFD01469DF836
:103D00005800C0EBC00000EB40021998283000EBCF
:103D10008200A0F84C1000207D4B7E4A00909DF858
:103D200058101998FDF740FA01469DF85800C0EB6D
:103D3000C00000EB40021998283000EB8200A0F888
:103D40004C109DF85800C0EBC00000EB40011998E2
:103D5000283000EB810000890E909DF85800C0EBE0
:103D6000C00000EB40011998283000EB8100807AF8
:103D70000D901A980079C0F34000E0B31A980079CA
:103D8000C0F38100C0F1040015901A9800F10803F7
:103D90009DF85810159A1998FDF7C2F918901898BF
:103DA00060B14FF000610D98CDE900010E9BDDE997
:103DB00012211998FEF789FAFF2052E49DF8580065
:103DC000C0EBC00000EB40011998283000EB8100E7
:103DD000B0F94C000290FCF74BFD01469DF85800ED
:103DE000C0EBC00000EB40021998283000EB8200C5
:103DF000A0F84C1000E035E09DF85800C0EBC00082
:103E000000EB40021998283000EB82001599C16040
:103E100001219DF85800C0EBC00000EB400219984A
:103E2000283000EB820081709DF85800C0EBC00084
:103E300000EB40011998283000EB8100006D78B14B
:103E40009DF85800C0EBC00000EB400119982830E5
:103E500000EB8100006D0290029A14991998904726
:103E6000002012E41A98007900F0010018B31A98A3
:103E7000017A407A01EB00211A98807A01EB004127
:103E80001A98C07A01EB006015909DF85810159AA9
:103E9000199802F0AFF81890189860B14FF00061CF
:103EA0000D98CDE900010E9BDDE912211998FEF76E
:103EB0000CFAFF2025E460208DF83C0001200B90D7
:103EC00006E000210FAA0B9811540B98401C0B9090
:103ED0000B980828F5D30FABDDE91212199801F001
:103EE00019FF0AE6129801287ED11898B0B99DF8FA
:103EF0005800C0EBC00000EB40011998283000EBDF
:103F000081008078032807D0012006E02100000806
:103F1000D8B80500450F000800201890189858B12F
:103F2000FE4900200346CDE90001DDE91221199880
:103F3000FEF7CBF9FF202AE49DF85800C0EBC00043
:103F400000EB40011998283000EB8100B0F94C00DB
:103F5000401C88B39DF85800C0EBC00000EB400146
:103F60001998283000EB8100B0F94C000290FCF762
:103F70007FFC01469DF85800C0EBC00000EB4002FA
:103F80001998283000EB8200A0F84C100020E44B78
:103F9000E44A00909DF858101998FDF705F901467C
:103FA0009DF85800C0EBC00000EB40021998283083
:103FB00000EB8200A0F84C109DF85800C0EBC00048
:103FC00000EB40011998283000EB810000890E9029
:103FD0009DF85800C0EBC00000EB40011998283054
:103FE00000EB8100807A00E0B7E00D909DF858006A
:103FF000C0EBC00000EB40011998283000EB8100B5
:10400000C1781A980079C0F3001081420BD0C649DC
:104010000D98CDE900010E9BDDE912211998FEF7FC
:1040200054F9FF206BE415AA9DF858101998FEF773
:1040300035FA1598072849D99DF85800C0EBC000FB
:1040400000EB40011998283000EB8100C078000790
:10405000000E8DF83C000DF13D0307229DF858102D
:104060001998FEF79BFB1890189860B14FF000610B
:104070000D98CDE900010E9BDDE912211998FEF79C
:1040800024F9FF203BE49DF85800C0EBC00000EB92
:1040900040011998283000EB8100C07808B9012050
:1040A00000E0002000F001019DF85800C0EBC000C6
:1040B00000EB40021998283000EB8200C1700FAB72
:1040C000DDE91212199801F025FE84E19DF85800EF
:1040D000C0EBC00000EB40011998283000EB8100D4
:1040E000C07800011599C1F1070140EA4100401C68
:1040F000C0B28DF83C000DF13D039DF85810159AA3
:104100001998FEF74BFB1890189860B14FF00061BA
:104110000D98CDE900010E9BDDE912211998FEF7FB
:10412000D4F8FF203BE41598401C0B9006E00022D9
:104130000FA90B980A540B98401C0B900B98082859
:10414000F5D30FABDDE91212199801F0E3FD9DF8EC
:104150005810199801F0EDFC3DE1189880B99DF8D0
:104160005800C0EBC00000EB40011998283000EB6C
:1041700081008078022801D0012000E00020189002
:10418000189858B1654800210B46CDE90010DDE9CB
:1041900012211998FEF799F8FF2046E49DF858007F
:1041A000C0EBC00000EB40011998283000EB810003
:1041B000B0F94C00401C88B39DF85800C0EBC0001B
:1041C00000EB40011998283000EB8100B0F94C0059
:1041D0000290FCF74DFB01469DF85800C0EBC00073
:1041E00000EB40021998283000EB8200A0F84C1038
:1041F00000204B4B4B4A00909DF858101998FCF743
:10420000D3FF01469DF85800C0EBC00000EB400210
:104210001998283000EB8200A0F84C109DF8580047
:10422000C0EBC00000EB40011998283000EB810082
:1042300000890E909DF85800C0EBC00000EB4001D3
:104240001998283000EB8100807A0D9015AA9DF80E
:1042500058101998FEF722F91598E0BB9DF8580000
:10426000C0EBC00000EB40011998283000EB810042
:10427000B0F94C000290FCF7FBFA01469DF858009B
:10428000C0EBC00000EB40021998283000EB820020
:10429000A0F84C1001219DF85800C0EBC00000EBC5
:1042A00040021998283000EB820081709DF8580078
:1042B000C0EBC00000EB40011998283000EB8100F2
:1042C000006D88B19DF85800C0EBC00000EB4001C4
:1042D0001998283000E009E000EB8100006D0290A1
:1042E000029A149919989047002020E415980728FD
:1042F0002FD99DF85800C0EBC00000EB4001199881
:10430000283000EB8100C0780007000E8DF83C00DB
:104310000DF13D0307229DF8581007E02100000829
:10432000D8B80500450F0008000003051998FEF7EE
:1043300035FA18901898C8B34FF000610D98CDE980
:1043400000010E9BDDE912211998FDF7BEFFFF2049
:1043500020E49DF85800C0EBC00000EB4001199824
:10436000283000EB8100C07801011598C0F10700EA
:1043700041EA4000401CC0B28DF83C000DF13D0305
:104380009DF85810159A1998FEF708FA1890189881
:1043900068B14FF000610D98CDE900010E9BDDE999
:1043A00012211998FDF791FFFF204EE40DE01598BA
:1043B000401C0B9006E000210FAA0B9811540B989B
:1043C000401C0B900B980828F5D30FABDDE91212B7
:1043D000199801F09FFC84E51A98017A407A41EA25
:1043E00000211A98807A41EA00411A98C07A41EA7D
:1043F00000600C901298012807D11898F0BB9DF826
:104400005810199801F095FB53E01898B0BB9DF82F
:104410005800C0EBC00000EB40011998283000EBB9
:104420008100B0F94C000290FCF722FA01469DF899
:104430005800C0EBC00000EB40021998283000EB98
:104440008200A0F84C1080219DF85800C0EBC000FD
:1044500000EB40021998283000EB820081709DF833
:104460005800C0EBC00000EB40021998283000EB68
:1044700082000C9941609DF8580000E019E0C0EB03
:10448000C00000EB40011998283000EB8100006D5E
:1044900078B19DF85800C0EBC00000EB40011998BE
:1044A000283000EB8100006D0290029A149919984F
:1044B000904716E51A98007900F0030006901298CC
:1044C00001287AD10698D0BB1A984179807941EABF
:1044D00000200E901A98C0790D90189858B9FE498E
:1044E0000D98CDE900010E9BDDE912211998FDF729
:1044F000ECFEFF2061E41A98007A7F280BDDF74973
:104500000D98CDE900010E9BDDE912211998FDF708
:10451000DCFEFF2051E416AA12991998FDF764FFFA
:104520001890189860B1EC490D98CDE900010E9BE8
:10453000DDE912211998FDF7C8FEFF203DE474E083
:1045400005210D98CDE900019DF858100E9B139A96
:104550001998FEF72FF81A980079C0F380019DF89A
:104560005800C0EBC00000EB40021998283000EB67
:10457000820080F834101A98017A9DF85800C0EB38
:10458000C00000EB40021998283000EB820080F850
:1045900035109DF858101998FEF735FA11901198BA
:1045A00060B111990D98CDE900010E9BDDE9122152
:1045B0001998FDF78AFEFF2053E424E215AA9DF81E
:1045C00058101998FDF76AFF9DF85800C0EBC0001D
:1045D00000EB40021998283000EB820015998163A6
:1045E000C2208DF83C000E98C0B28DF83D000E98A8
:1045F000000A8DF83E000D988DF83F001598C0B266
:104600008DF840001598000A8DF841001598000CAF
:104610008DF842001598000E8DF843000FABDDE9D0
:104620001212199801F076FBE6E30698012826D1CC
:10463000189880B99DF85800C0EBC00000EB40010D
:104640001998283000EB81008078052801D00120DE
:1046500000E000201890189858B19F4800210B46A0
:10466000CDE90010DDE912211998FDF72EFEFF209B
:1046700020E49DF85810199801F05BFABCE3069805
:10468000022802D006980328CED1189880B99DF848
:104690005800C0EBC00000EB40011998283000EB37
:1046A00081008078052801D0012000E000201890CA
:1046B000189858B1884900200346CDE90001DDE98A
:1046C00012211998FDF701FEFF2034E49DF85800EF
:1046D000C0EBC00000EB40011998283000EB8100CE
:1046E000B0F94C00401C88B39DF85800C0EBC000E6
:1046F00000EB40011998283000EB8100B0F94C0024
:104700000290FCF7B5F801469DF85800C0EBC000D8
:1047100000EB40021998283000EB8200A0F84C1002
:1047200000206F4B6F4A00909DF858101998FCF7C5
:104730003BFD01469DF85800C0EBC00000EB400275
:104740001998283000EB8200A0F84C109DF8580012
:10475000C0EBC00000EB40011998283000EB81004D
:1047600000890E909DF85800C0EBC00000EB40019E
:104770001998283000EB8100807A0D900698022865
:104780007ED11A9881799DF85800C0EBC00000EBEB
:1047900040021998283000EB820080F835101A98F2
:1047A000407900F07F00049015AA9DF858101998E0
:1047B000FDF774FE1598A8BB9DF85800C0EBC0002B
:1047C00000EB40011998283000EB810090F8401070
:1047D0000498814227D19DF85800C0EBC00000EB3F
:1047E00040011998283000EB810090F84110C0205A
:1047F00040EA8100401CC0B28DF83C0001200B90C3
:1048000006E000210FAA0B9811540B98401C0B9046
:104810000B980828F5D30FABDDE91212199801F0B7
:1048200079FAD8E5FFE79DF85800C0EBC00000EB2F
:1048300040011998283000EB8100C16B07220498D1
:1048400002FB00119DF85800C0EBC00000EB4002D5
:104850001998283000EB820001619DF85800C0EBE8
:10486000C00000EB40011998283000EB810001697D
:104870009DF85800C0EBC00000EB4002199800E022
:1048800011E0283000EB8200C06881420BD9124849
:1048900000210B46CDE90010DDE912211998FDF742
:1048A00014FDFF203EE49DF85800C0EBC00000EB73
:1048B00040011998283000EB810001699DF85800EB
:1048C000C0EBC00000EB40021998283000EB8200DA
:1048D000C1630120059085E0210000080200040565
:1048E000D8B80500450F00089DF85800C0EBC0007F
:1048F00000EB40021998283000EB8200059980F8FF
:10490000401015AA9DF858101998FDF7C7FD159885
:10491000072821D905988DF83C000DF13D030722A9
:104920009DF858101998FDF739FF1890189860B144
:104930004FF000610D98CDE900010E9BDDE91221D9
:104940001998FDF7C2FCFF2027E40FABDDE9121236
:10495000199801F0DFF941E0059840F080008DF8EA
:104960003C000DF13D039DF85810159A1998FDF77C
:1049700015FF1890189860B14FF000610D98CDE9BF
:1049800000010E9BDDE912211998FDF79EFCFF2026
:10499000ABE41598401C0B9006E000210FAA0B9881
:1049A00011540B98401C0B900B980828F5D30FABB3
:1049B000DDE91212199801F0ADF91598C0F1070060
:1049C000C1B29DF85800C0EBC00000EB400219983E
:1049D000283000EB820080F8411013E00598401C5D
:1049E000C0B205909DF85800C0EBC00000EB40013C
:1049F0001998283000EB810090F835100598814215
:104A0000BFF672AF58E2069810B1069802287DD121
:104A1000189880B99DF85800C0EBC00000EB400129
:104A20001998283000EB81008078042801D00120FB
:104A300000E000201890189858B1FE4800210B465D
:104A4000CDE90010DDE912211998FDF73EFCFF20A9
:104A50004BE49DF85800C0EBC00000EB40011998F2
:104A6000283000EB810000890E909DF85800C0EBC3
:104A7000C00000EB40011998283000EB8100807ADB
:104A80000D909DF85800C0EBC00000EB4001199854
:104A9000283000EB8100B0F94C00401C88B39DF831
:104AA0005800C0EBC00000EB40011998283000EB23
:104AB0008100B0F94C000290FBF7DAFE01469DF848
:104AC0005800C0EBC00000EB40021998283000EB02
:104AD0008200A0F84C100020D74BD84A00909DF8D7
:104AE00058101998FCF760FB01469DF85800C0EB80
:104AF000C00000EB40021998283000EB8200A0F8BB
:104B00004C10069880BB1A98007A00E075E17F2867
:104B10000BDDCB490D98CDE900010E9BDDE912219B
:104B20001998FDF7D2FBFF2012E41A980079C0F320
:104B300080019DF85800C0EBC00000EB40021998BE
:104B4000283000EB820080F834101A98017A9DF822
:104B50005800C0EBC00000EB40021998283000EB71
:104B6000820080F83510A0E0FFE71A9880797F284E
:104B70000BDDB3490D98CDE900010E9BDDE9122153
:104B80001998FDF7A2FBFF200FE41A9881799DF890
:104B90005800C0EBC00000EB40021998283000EB31
:104BA000820080F835101A98407900F07F00049058
:104BB00015AA9DF858101998FDF770FC1598A8BB18
:104BC0009DF85800C0EBC00000EB40011998283058
:104BD00000EB810090F840100498814227D19DF8A5
:104BE0005800C0EBC00000EB40011998283000EBE2
:104BF000810090F84100C02141EA8000401CC0B211
:104C00008DF83C0001200B9006E000210FAA0B98C4
:104C100011540B98401C0B900B980828F5D30FAB40
:104C2000DDE91212199801F075F842E4FFE79DF8EA
:104C30005800C0EBC00000EB40011998283000EB91
:104C40008100C16B0722049802FB00119DF85800F7
:104C5000C0EBC00000EB40021998283000EB820046
:104C600001619DF85800C0EBC00000EB40011998AD
:104C7000283000EB810001699DF85800C0EBC000AE
:104C800000EB40021998283000EB8200C068814296
:104C90000BD968490D98CDE900010E9BDDE9122181
:104CA0001998FDF712FBFF2024E49DF85800C0EB93
:104CB000C00000EB40011998283000EB8100016929
:104CC0009DF85800C0EBC00000EB40021998283056
:104CD00000EB8200C163012005907DE09DF8580043
:104CE000C0EBC00000EB40021998283000EB8200B6
:104CF000059980F8401015AA9DF858101998FDF7ED
:104D0000CDFB1598072821D905988DF83C000DF1A9
:104D10003D0307229DF858101998FDF73FFD1890A4
:104D2000189860B14FF000610D98CDE900010E9B1D
:104D3000DDE912211998FDF7C8FAFF203CE40FAB1A
:104D4000DDE91212199800F0E5FF41E0059840F006
:104D500080008DF83C000DF13D039DF85810159A28
:104D60001998FDF71BFD1890189860B14FF000617D
:104D70000D98CDE900010E9BDDE912211998FDF790
:104D8000A4FAFF2018E41598401C0B9006E00021BF
:104D90000FAA0B9811540B98401C0B900B980828E5
:104DA000F5D30FABDDE91212199800F0B3FF159897
:104DB000C0F10700C1B29DF85800C0EBC00000EB85
:104DC00040021998283000EB820080F8411013E06F
:104DD0000598401CC0B205909DF85800C0EBC0007B
:104DE00000EB40011998283000EB810090F8351055
:104DF00005988142BFF672AF5EE0069801284FD158
:104E00009DF85800C0EBC00000EB40011998283015
:104E100000EB8100B0F94C000290FBF729FD014640
:104E20009DF85800C0EBC00000EB400219982830F4
:104E300008E0000021000008D8B80500450F000870
:104E40000200040500EB8200A0F84C1001219DF83F
:104E50005800C0EBC00000EB40021998283000EB6E
:104E6000820081709DF85800C0EBC00000EB40014B
:104E70001998283000EB8100006D78B19DF858003A
:104E8000C0EBC00000EB40011998283000EB810016
:104E9000006D0290029A149919989047002014E42A
:104EA000F84800210B46CDE90010DDE912211998E0
:104EB000FDF70BFAFF2008E4B3E4129801287DD136
:104EC000189878B31A98007900F0010006900698B7
:104ED00058B1EC4800210B46CDE90010DDE9122164
:104EE0001998FDF7F2F9FF20DCE41A9841798079EE
:104EF00041EA00200E901A98C0790D9016AA1299D6
:104F00001998FDF771FA1890189860B1DD490D985D
:104F1000CDE900010E9BDDE912211998FDF7D5F9C5
:104F2000FF20BFE465E004210D98CDE900019DF864
:104F300058100E9B139A1998FDF73CFB01219DF820
:104F40005800C0EBC00000EB40021998283000EB7D
:104F5000820080F842101A980079C0F380019DF811
:104F60005800C0EBC00000EB40021998283000EB5D
:104F7000820080F834101A98007900F00200B8B16D
:104F80001A98017A407A01EB00211A98807A01EB95
:104F900000411A98C07A01EB00619DF85800C0EBFF
:104FA000C00000EB40021998283000EB82008163BA
:104FB000A0208DF83C000E98C0B200E096E28DF87B
:104FC0003D000E9800128DF83E000D988DF83F00C0
:104FD00010208DF8400000208DF843008DF842002D
:104FE0008DF841000FABDDE91212199800F092FE26
:104FF0007BE29DF85800C0EBC00000EB400119981F
:10500000283000EB810090F8420001287ED19DF805
:105010005800C0EBC00000EB40011998283000EBAD
:105020008100B0F94C00401C88B39DF85800C0EBDB
:10503000C00000EB40011998283000EB8100B0F966
:105040004C000290FBF714FC01469DF85800C0EBA1
:10505000C00000EB40021998283000EB8200A0F855
:105060004C100020884B894A00909DF858101998E0
:10507000FCF79AF801469DF85800C0EBC00000EB21
:1050800040021998283000EB8200A0F84C101A98C2
:10509000007900F07F0005901A98007900F08000F8
:1050A000A8B39DF85800C0EBC00000EB4001199870
:1050B000283000EB810090F84000401C05998842A0
:1050C0002CD102219DF85800C0EBC00000EB40023B
:1050D0001998283000EB820080F842109DF85800A3
:1050E000C0EBC00000EB40021998283000EB8200B2
:1050F000059980F840109DF85800C0EBC00000EB07
:1051000040011998283000EB810101E0C0E038E04F
:105110001A98426841F8432F80684860A2208DF8B1
:105120003C009DF85800C0EBC00000EB400119980E
:10513000283000EB810090F840008DF83D001020F1
:105140008DF83E0000208DF843008DF842008DF868
:1051500041008DF840008DF83F000FABDDE91212E1
:10516000199800F0D7FD00219DF85800C0EBC00051
:1051700000EB40021998283000EB820080F84010C4
:10518000B3E19DF85800C0EBC00000EB4001199856
:10519000283000EB810090F84000401C05998842BF
:1051A0003AD19DF85800C0EBC00000EB40021998BE
:1051B000283000EB8200059980F840101A98431DB2
:1051C00007229DF858101998FBF7AAFF1890189815
:1051D00010B34FF000619DF85800C0EBC00000EB29
:1051E00040021998283000EB8200807ACDE9000156
:1051F0009DF85800C0EBC00000EB40011998283022
:1052000000EB8100008903460290DDE91221199824
:10521000FDF75BF8FF201BE405981028B0D1A22011
:105220008DF83C009DF85800C0EBC00000EB400139
:105230001998283000EB810090F840008DF83D006F
:1052400010208DF83E0000208DF843008DF84200BC
:105250008DF841008DF840008DF83F000FABDDE97F
:105260001212199800F056FD00219DF85800C0EB6D
:10527000C00000EB40021998283000EB820080F853
:105280004010FCE321000008D8B80500450F0008D5
:105290009DF85800C0EBC00000EB40011998283081
:1052A00000EB810090F842000228EAD11A980079B8
:1052B00000F0010058B9FE4800210B46CDE900106E
:1052C000DDE912211998FDF700F8FF202CE49DF884
:1052D0005800C0EBC00000EB40011998283000EBEB
:1052E0008100B0F94C00401C88B39DF85800C0EB19
:1052F000C00000EB40011998283000EB8100B0F9A4
:105300004C000290FBF7B4FA01469DF85800C0EB40
:10531000C00000EB40021998283000EB8200A0F892
:105320004C100020E34BE44A00909DF85810199867
:10533000FBF73AFF01469DF85800C0EBC00000EBB8
:1053400040021998283000EB8200A0F84C101A98FF
:105350000079C0F3820003909DF85800C0EBC000B4
:1053600000EB40011998283000EB81004430029096
:105370000398C0F10700019002469DF85810029B67
:105380001998FBF7CDFE1890189810B34FF00061F4
:105390009DF85800C0EBC00000EB4002199828307F
:1053A00000EB8200807ACDE900019DF85800C0EB47
:1053B000C00000EB40011998283000EB8100008903
:1053C00003460290DDE912211998FCF77EFFFF20C9
:1053D0006AE49DF85800C0EBC00000EB400119984A
:1053E000283000EB8100806BC8B39DF85800C0EBFB
:1053F000C00000EB40011998283000EB8100816B60
:105400009DF85800C0EBC00000EB4002199828300E
:1054100000EB82000069814222D0A5499DF8580026
:10542000C0EBC00000EB40021998283000EB82006E
:10543000807ACDE900019DF85800C0EBC00000EB78
:1054400040011998283000EB810000890346029042
:10545000DDE912211998FCF738FFFF2024E4FFE76B
:10546000A1208DF83C0001200B9006E000210FAA3E
:105470000B9811540B98401C0B900B980828F5D3EF
:105480000FABDDE91212199800F044FC9DF858109A
:105490001998FBF7EFFD1190119808B39DF858008B
:1054A000C0EBC00000EB40021998283000EB8200EE
:1054B000807A1199CDE900019DF85800C0EBC00039
:1054C00000EB40011998283000EB81000089034669
:1054D0000290DDE912211998FCF7F7FEFF202DE478
:1054E0009DF85810199800F024FBC8E2189858B19C
:1054F0006F4800210B46CDE90010DDE91221199813
:10550000FCF7E3FEFF2019E49DF85800C0EBC00053
:1055100000EB40011998283000EB8100B0F94C00F5
:10552000401C88B39DF85800C0EBC00000EB400160
:105530001998283000EB8100B0F94C000290FBF77D
:1055400097F901469DF85800C0EBC00000EB4002FF
:105550001998283000EB8200A0F84C100020554B21
:10556000554A00909DF858101998FBF71DFE01460A
:105570009DF85800C0EBC00000EB4002199828309D
:1055800000EB8200A0F84C109DF85800C0EBC00062
:1055900000EB40011998283000EB810090F84200A0
:1055A000E8BB1A98007900F0010000289DD1012184
:1055B0009DF85800C0EBC00000EB4002199828305D
:1055C00000EB820080F842101A980079C0F3800145
:1055D0009DF85800C0EBC00000EB4002199828303D
:1055E00000EB820080F834101A98007900F0020075
:1055F000C8B11A98017A407A01EB00211A98807A92
:1056000001EB00411A98C07A01EB00629DF8580046
:10561000C0EBC00000EB40011998283000E019E011
:1056200000EB81008263A3208DF83C0001200B90E9
:1056300006E000210FAA0B9811540B98401C0B9008
:105640000B980828F5D30FABDDE91212199800F07A
:1056500061FB14E29DF85800C0EBC00000EB400174
:105660001998283000EB810090F8420001287DD184
:105670001A98007900F07F0005901A98007900F0E0
:105680008000E8B39DF85800C0EBC00000EB40017B
:105690001998283000EB810090F84000401C0599D3
:1056A000884232D102229DF85800C0EBC00005E0CC
:1056B00021000008D8B80500450F000800EB4001A4
:1056C0001998283000EB810080F842209DF858009E
:1056D000C0EBC00000EB40021998283000EB8200BC
:1056E000059980F840109DF85800C0EBC00000EB11
:1056F00040011998283000EB81011A98426800E0B7
:1057000038E041F8432F80684860A2208DF83C00C3
:105710009DF85800C0EBC00000EB400119982830FC
:1057200000EB810090F840008DF83D0010208DF8CE
:105730003E0000208DF843008DF842008DF84100B6
:105740008DF840008DF83F000FABDDE9121219987B
:1057500000F0E0FA00219DF85800C0EBC00000EB1B
:1057600040021998283000EB820000E083E080F8C6
:10577000401084E19DF85800C0EBC00000EB4001F0
:105780001998283000EB810090F84000401C0599E2
:1057900088423AD19DF85800C0EBC00000EB4002AF
:1057A0001998283000EB8200059980F840101A986B
:1057B000431D07229DF858101998FBF7B1FC18906B
:1057C000189810B34FF000619DF85800C0EBC0006E
:1057D00000EB40021998283000EB8200807ACDE976
:1057E00000019DF85800C0EBC00000EB4001199883
:1057F000283000EB8100008903460290DDE9122188
:105800001998FCF762FDFF2005E50598102831D1B5
:10581000A2208DF83C009DF85800C0EBC00000EBC2
:1058200040011998283000EB810090F840008DF875
:105830003D0010208DF83E0000208DF843008DF8CB
:1058400042008DF841008DF840008DF83F000FAB0D
:10585000DDE91212199800F05DFA00229DF8580057
:10586000C0EBC00000EB40011998283000EB81002C
:1058700080F8402003E19DF85800C0EBC00000EB29
:1058800040011998283000EB810090F8420002286E
:105890007ED11A98007900F0010058B99148002192
:1058A0000B46CDE90010DDE912211998FCF70DFD3A
:1058B000FF20B0E41A980079C0F3820003909DF8AD
:1058C0005800C0EBC00000EB40011998283000EBF5
:1058D0008100443002900398C0F107000190024615
:1058E0009DF85810029B1998FBF71AFC189018980D
:1058F00010B34FF000619DF85800C0EBC00000EB02
:1059000040021998283000EB8200807ACDE900012E
:105910009DF85800C0EBC00000EB400119982830FA
:1059200000EB8100008903460290DDE912211998FD
:10593000FCF7CBFCFF206EE49DF85800C0EBC000E4
:1059400000EB40011998283000EB8100806BD8B340
:105950009DF85800C0EBC00000EB400119982830BA
:1059600000EB8100816B9DF85800C0EBC00000EB9C
:1059700040021998283000EB82000069814224D04F
:1059800058499DF85800C0EBC00000EB400200E011
:1059900075E01998283000EB8200807ACDE900018B
:1059A0009DF85800C0EBC00000EB4001199828306A
:1059B00000EB8100008903460290DDE9122119986D
:1059C000FCF783FCFF2026E4FFE7A1208DF83C00D4
:1059D00001200B9006E000210FAA0B9811540B98A0
:1059E000401C0B900B980828F5D30FABDDE9121281
:1059F000199800F08FF99DF85800C0EBC00000EB3B
:105A000040011998283000EB8100B0F94C00029059
:105A1000FAF72EFF01469DF85800C0EBC00000EBDE
:105A200040021998283000EB8200A0F84C100122A7
:105A30009DF85800C0EBC00000EB400119982830D9
:105A400000EB810082709DF85800C0EBC00000EBB5
:105A500040011998283000EB8100006D78B19DF865
:105A60005800C0EBC00000EB40011998283000EB53
:105A70008100006D0290029A1499199890472EE0C7
:105A8000189800BB18499DF85800C0EBC00000EB07
:105A900040021998283000EB8200807ACDE900019D
:105AA0009DF85800C0EBC00000EB40011998283069
:105AB00000EB8100008903460290DDE9122119986C
:105AC000FCF703FC09E0084800210B46CDE9001073
:105AD000DDE912211998FCF7F8FBFF2078E400BFFC
